:100000000C9462000C948A000C948A000C948A0070
:100010000C948A000C948A000C948A000C948A0038
:100020000C948A000C948A000C948A000C948A0028
:100030000C948A000C948A000C948A000C948A0018
:100040000C945A050C948A000C94CA050C94A405CF
:100050000C948A000C948A000C948A000C948A00F8
:100060000C948A000C948A000000000023002600F3
:10007000290000000000240027002A0000000000E2
:10008000250028002B0000000008000201000003EA
:10009000040700000000000000000404040404043D
:1000A0000404020202020202030303030303010227
:1000B00004081020408001020408102001020408F6
:1000C0001020FC0511241FBECFEFD8E0DEBFCDBF4E
:1000D00011E0A0E0B1E0E4EFF4E102C005900D9280
:1000E000AA33B107D9F722E0AAE3B1E001C01D921B
:1000F000A232B207E1F710E0C2E6D0E004C02197D7
:10010000FE010E94720AC136D107C9F70E94940607
:100110000C94780A0C940000FC01538D448D252F1B
:1001200030E0842F90E0821B930B541710F0CF9691
:10013000089501970895FC01918D828D981761F0C3
:10014000A28DAE0FBF2FB11D5D968C91928D9F5FDA
:100150009F73928F90E008958FEF9FEF0895FC01B9
:10016000918D828D981731F0828DE80FF11D858D6C
:1001700090E008958FEF9FEF0895FC01918D228DFF
:10018000892F90E0805C9F4F821B91098F73992784
:100190000895FC01A48DA80FB92FB11DA35ABF4F1C
:1001A0002C91848D90E001968F739927848FA68976
:1001B000B7892C93A089B1898C91837080648C93CA
:1001C000938D848D981306C00288F389E02D808179
:1001D0008F7D80830895EF92FF920F931F93CF93AB
:1001E000DF93EC0181E0888F9B8D8C8D98131AC072
:1001F000E889F989808185FF15C09FB7F894EE8959
:10020000FF896083E889F9898081837080648083B5
:100210009FBF81E090E0DF91CF911F910F91FF9000
:10022000EF900895F62E0B8D10E00F5F1F4F0F73A8
:100230001127E02E8C8D8E110CC00FB607FCFACF63
:10024000E889F989808185FFF5CFCE010E94C90038
:10025000F1CFEB8DEC0FFD2FF11DE35AFF4FF08234
:100260009FB7F8940B8FEA89FB8980818062CFCF9A
:10027000CF93DF93EC01888D8823B9F0AA89BB89DD
:10028000E889F9898C9185FD03C0808186FD0DC0C8
:100290000FB607FCF7CF8C9185FFF2CF808185FFE9
:1002A000EDCFCE010E94C900E9CFDF91CF91089533
:1002B00087E491E00E94BD0021E0892B09F420E051
:1002C000822F089580E090E0892B29F00E94580148
:1002D00081110C940000089590E0FC01EA57FF4F53
:1002E0002491FC01E255FF4F3491FC01E656FF4F8B
:1002F000E491EE23C9F0222339F0233001F1A8F470
:10030000213019F1223029F1F0E0EE0FFF1FE458FF
:10031000FF4FA591B4918FB7F894EC91611126C06D
:1003200030953E233C938FBF08952730A9F02830A5
:10033000C9F0243049F7809180008F7D03C08091FF
:1003400080008F7780938000DFCF84B58F7784BD66
:10035000DBCF84B58F7DFBCF8091B0008F7780930A
:10036000B000D2CF8091B0008F7DF9CF3E2BDACF95
:10037000CF93DF9390E0FC01E255FF4F2491865626
:100380009F4FFC0184918823D1F090E0880F991F42
:10039000FC01EE58FF4FA591B491FC01E458FF4FCA
:1003A000C591D491623071F49FB7F8943C91822F3B
:1003B000809583238C93E8812E2B28839FBFDF9128
:1003C000CF9108958FB7F894EC912E2B2C938FBF7B
:1003D000F6CF3FB7F89480913F0190914001A091F2
:1003E0004101B091420126B5A89B05C02F3F19F0ED
:1003F0000196A11DB11D3FBFBA2FA92F982F8827A5
:10040000BC01CD01620F711D811D911D42E0660F7F
:10041000771F881F991F4A95D1F708958F929F9251
:10042000AF92BF92CF92DF92EF92FF924B015C01AD
:100430000E94E9016B017C010E94E9016C197D09B0
:100440008E099F09683E734081059105A8F321E05C
:10045000821A9108A108B10888EEC80E83E0D81E60
:10046000E11CF11C81149104A104B10429F7FF904F
:10047000EF90DF90CF90BF90AF909F908F900895B6
:10048000AF92BF92CF92DF92EF92FF920F931F93A2
:10049000CF93DF936C017B018B01040F151FEB01E0
:1004A0005E01AE18BF08C017D10759F06991D60197
:1004B000ED91FC910190F081E02DC6010995892B09
:1004C00079F7C501DF91CF911F910F91FF90EF90C8
:1004D000DF90CF90BF90AF900895089590E080E0B6
:1004E0000895CF92DF92EF92FF92CF93DF93DC01DA
:1004F0001796CC911797D0E06111DC2F18962C91AC
:10050000189730E0220F331F28593F4F50E040E04A
:10051000F90185919491FC01F080BA0190E080E0AE
:10052000EF2DEC23ED1310C04F5F5F4F1D96CD9064
:10053000DD90ED90FC9050976C157D058E059F0524
:1005400038F36FEF7FEFCB01DF91CF91FF90EF900A
:10055000DF90CF9008958F929F92AF92BF92CF92EB
:10056000DF92EF92FF920F931F93CF93DF93CDB75C
:10057000DEB7C054D1400FB6F894DEBF0FBECDBF7A
:100580002FB7F89440914301509144016091450187
:10059000709146012FBFFC010185128523853485AA
:1005A0006A017B01C01AD10AE20AF30A97018601A7
:1005B000003D174021053105B0F4FC018189C05C84
:1005C000DE4F0FB6F894DEBF0FBECDBFDF91CF91E7
:1005D0001F910F91FF90EF90DF90CF90BF90AF9061
:1005E0009F908F9008958C01FC014187528763870B
:1005F00074871482138212821182108262E08581D4
:100600000E94B80161E070E080E090E00E940E027C
:1006100061E0F80185810E94B80160E0F801858100
:100620000E946C01F80186818551823028F58BE2A9
:1006300091E10197F1F762E0F80185810E94B8012C
:10064000F801828990E08230910538F0880F991F77
:10065000880F991F05970197F1F7F89460E0C8019A
:100660000E9471026F3F7F4F8F4F9F4F61F4F801DF
:10067000118A789480E0A3CF64E170E080E090E09C
:100680000E940E02D8CF61E0C8010E9471026F3F44
:100690007F4F8F4F9F4F59F3CE0101967C015E0132
:1006A0009FEBA91A9EEFB90A670160E0C8010E949A
:1006B0007102F601608371838283938361E0C801D4
:1006C0000E947102F6016483758386839783F8E044
:1006D000CF0ED11CCA14DB0441F7789430E020E03F
:1006E000F70180809180A280B3804481558166812A
:1006F0007781FFEF8F169F06AF06BF0631F04F3FA1
:100700008FEF58076807780719F4F801118AB2CFFC
:10071000F90183E0F595E7958A95E1F7E00FF11F80
:100720008081880F84169506A606B706F0F08083B0
:100730002F5F3F4FF8E0EF0EF11C2832310581F6B4
:10074000F801448120818181280F3327331F828162
:10075000280F311D8381820F932F911D99274817F0
:10076000190699F681E0818B2ACF8160E0CF8F92C4
:100770009F92AF92BF920F931F93CF93DF93CDB70A
:10078000DEB7A1970FB6F894DEBF0FBECDBF19A29A
:10079000423008F44AE08E010F5D1F4F842E912CE9
:1007A000B12CA12CA50194010E94500AE62FB90199
:1007B000CA01EA3044F5E05DD801EE938D01232BA8
:1007C000242B252B79F790E080E0109769F0FD014C
:1007D00001900020E9F73197AF014A1B5B0BBD0187
:1007E00087EF91E00E944002A1960FB6F894DEBF19
:1007F0000FBECDBFDF91CF911F910F91BF90AF90F2
:100800009F908F900895E95CD7CFFC010190002064
:10081000E9F73197AF01481B590BBC0187EF91E015
:100820000C944002CF93DF93EC0160E08E810E9434
:100830006C0161E08E810E946C0160E08E810E94FB
:100840006C018BE891E00197F1F7DF91CF9108956A
:10085000CF92DF92EF92FF920F931F93CF93DF938C
:100860006C017C0187E0E80EF11CD0E0C0E0062FAF
:1008700010E0B8010C2E02C0759567950A94E2F756
:100880006170F70181917F010E946C012196C43053
:10089000D10579F7C601DF91CF911F910F91FF909C
:1008A000EF90DF90CF900C941204CF92DF92EF92F2
:1008B000FF920F931F93CF93DF93EC01F62E642FDB
:1008C0008C810E946C018D818F3F19F060E00E9445
:1008D0006C010F2D10E08F8584FF25C06E0187E02D
:1008E000C80ED11CF12CE12CB8010E2C02C075955C
:1008F00067950A94E2F76170F60181916F010E9499
:100900006C01FFEFEF1AFF0A88E0E816F10461F7C7
:10091000CE01DF91CF911F910F91FF90EF90DF906B
:10092000CF900C941204B80184E0759567958A9570
:10093000E1F7CE010E9428046F2DCE01DF91CF9107
:100940001F910F91FF90EF90DF90CF900C942804AF
:1009500040E0682F87EF91E00C945504CF93DF932C
:10096000823029F490910602986090930602809359
:100970000A0210920B0280E480930C0280E18093C3
:100980000D0280E580930E0261E08091FB010E94E0
:10099000B8018091FC018F3F19F061E00E94B8011D
:1009A00061E08091FD010E94B801C7EFD1E09E0196
:1009B000275F31408091060284FD0BC084E090E007
:1009C00021962817390744F461E08E810E94B8010E
:1009D000EECF88E090E0F4CF8BE39DE00197F1F754
:1009E00060E08091FB010E946C0160E08091FD015C
:1009F0000E946C018091FC018F3F19F060E00E9421
:100A00006C018091060284FD39C063E087EF91E0BC
:100A10000E942804CBE4D6E4CE010197F1F763E00D
:100A200087EF91E00E9428042197F1F763E087EFB8
:100A300091E00E94280483E592E00197F1F762E0DB
:100A400087EF91E00E9428048091060280620E9454
:100A5000A80484E0809307028CE00E94A80481E04F
:100A60000E94A8048BE39FE10197F1F782E0809355
:100A7000080286E0DF91CF910C94A80480620E9466
:100A8000A8048BE496E40197F1F780910602806256
:100A90000E94A80483E592E00197F1F78091060295
:100AA00080620E94A804D0CF41E00E94550481E0FA
:100AB00090E008951F920F920FB60F9211242F937A
:100AC0003F938F939F93AF93BF93809143019091F6
:100AD0004401A0914501B091460130913E0123E0CF
:100AE000230F2D3758F50196A11DB11D20933E010E
:100AF0008093430190934401A0934501B093460134
:100B000080913F0190914001A0914101B09142013B
:100B10000196A11DB11D80933F0190934001A093C8
:100B20004101B0934201BF91AF919F918F913F914D
:100B30002F910F900FBE0F901F90189526E8230F4E
:100B40000296A11DB11DD2CF1F920F920FB60F9228
:100B500011242F933F934F935F936F937F938F93C2
:100B60009F93AF93BF93EF93FF9387E491E00E942D
:100B7000C900FF91EF91BF91AF919F918F917F91AC
:100B80006F915F914F913F912F910F900FBE0F90FA
:100B90001F9018951F920F920FB60F9211242F934A
:100BA0008F939F93EF93FF93E0915701F09158013A
:100BB0008081E0915D01F0915E0182FD1BC090811A
:100BC000809160018F5F8F7320916101821741F0E6
:100BD000E0916001F0E0E95BFE4F958F809360014A
:100BE000FF91EF919F918F912F910F900FBE0F90DA
:100BF0001F9018958081F4CFBF92CF92DF92EF9231
:100C0000FF920F931F93CF93DF93E7E4F1E01382FA
:100C1000128288EE93E0A0E0B0E084839583A683FF
:100C2000B78384E091E09183808385EC90E09587A1
:100C3000848784EC90E09787868780EC90E0918BA6
:100C4000808B81EC90E0938B828B82EC90E0958B93
:100C5000848B86EC90E0978B868B118E128E138E90
:100C6000148EA4EEB1E015961C9215978BE0B82E69
:100C70001696BC9216970EEA10E0F801849117962A
:100C80008C931797CAE9D0E0FE01849118968C9353
:100C9000189790E8C92E9EE3D92EE12CF12C1D96D1
:100CA000CD92DD92ED92FC925097E7EFF1E0138246
:100CB000128286E191E0918380838CE084838FEFC0
:100CC0008583B68289E0878388E0808787E0818793
:100CD00086E082871386148615861686178681E03D
:100CE0000E94AE04AFE0B2E015961C9215971696DE
:100CF000BC921697F801049117960C931797FE0172
:100D0000C4911896CC9318971D96CD92DD92ED92D2
:100D1000FC925097DF91CF911F910F91FF90EF9030
:100D2000DF90CF90BF900895789484B5826084BDA1
:100D300084B5816084BD85B5826085BD85B58160DF
:100D400085BD80916E00816080936E00109281005D
:100D50008091810082608093810080918100816018
:100D600080938100809180008160809380008091D9
:100D7000B10084608093B1008091B0008160809365
:100D8000B00080917A00846080937A0080917A002C
:100D9000826080937A0080917A00816080937A00EB
:100DA00080917A00806880937A001092C10097E366
:100DB000292E02E310E022E3322E3BE3E32E3FE153
:100DC000F32E40E0C42E40E0D42E62E08091140265
:100DD0000E94B8012FB7F89480914301909144018B
:100DE000A0914501B09146012FBF805D9740A109B8
:100DF000B1098093180290931902A0931A02B0933C
:100E00001B02209221028FE092E00E94AB02882315
:100E100051F0809115028B3030F08D3048F08551C3
:100E2000823008F458C060E070E080EC9FE71CC09E
:100E30006091100270E090E080E00E9457092DEC74
:100E40003CEC4CEC5DE30E94E3094B015C016091DA
:100E50000F0270E090E080E00E9457099B01AC0116
:100E6000C501B4010E94B3080E941F0970933D019F
:100E700060933C0162E08091E9010E94B8012FB7C4
:100E8000F8948091430190914401A0914501B09163
:100E900046012FBF805D9740A109B1098093ED0104
:100EA0009093EE01A093EF01B093F0012092F60130
:100EB00084EE91E00E94AB02882341F08091EA0128
:100EC0008C3009F484C0C8F48B3081F160E070E0AC
:100ED00080EC9FE753C060910F027091100276275B
:100EE0006727762790E080E00E9455092DEC3CECC6
:100EF0004CEC5DE30E94E309B7CF8551823030F7B7
:100F0000C091E6016C2F70E0762F662766277F7709
:100F10008091E701682B90E080E00E9455092DEC5C
:100F20003CEC4CEC5DE30E94E3096DC06091E6018E
:100F300070E090E080E00E9455094B015C01C09197
:100F4000E701C7FF0AC0AC019B0160E070E080E8E8
:100F50009FEB0E94B2084B015C01CF706C2F70E0D8
:100F600090E080E00E9457092DEC3CEC4CEC5DE3F6
:100F70000E94E309A50194010E94B3080E941F0981
:100F80004B0170933B0160933A0164E170E080E0B3
:100F900090E00E940E0240903C0150903D0182E0A2
:100FA0000E94AE0461E08DE00E94B801E3E9F0E048
:100FB0008491833009F4BAC050F58130D1F1823088
:100FC00009F4AFC060E08DE00E946C0136C0C091B2
:100FD000E6016C2F70E090E080E00E9455094B0123
:100FE0005C016091E7016F7070E090E080E00E942A
:100FF00057092DEC3CEC4CEC5DE30E94E309A501A4
:1010000094010E94B308C7FFB9CF9058B7CF87307B
:1010100009F496C0883009F49BC0843099F6809119
:10102000800080628093800010938B0000938A0080
:1010300004C084B5806884BD37BC81E00E94A804E8
:10104000C7010197F1F7E0910A02E23008F088C089
:10105000E150F0E0E950FE4F848980680E94A804C6
:101060008EE191E00E940504052C000C66087708CB
:101070004AE0C301B20177FE0EC041E06DE287EFA6
:1010800091E00E94550466277727CB016419750902
:10109000860997094AE00E94B70388E291E00E941E
:1010A0000504E1E080910A028111E0E0E195F0E0C1
:1010B000E950FE4F848980680E94A8048AE291E08A
:1010C0000E940504092C000CAA08BB084AE0C501CF
:1010D000B401B7FE0EC041E06DE287EF91E00E94DF
:1010E000550466277727CB01681979098A099B0976
:1010F0004AE00E94B70388E391E00E94050464E699
:1011000070E080E090E00E940E02C114D10409F466
:101110005CCE0E945801882309F457CE0E9400003B
:1011200054CE84B5806284BD38BC87CF8091800066
:1011300080688093800010938900009388007DCFA1
:101140008091B00080688093B0003092B30075CF7A
:101150008091B00080628093B0003092B4006DCF77
:10116000E1E077CF5058BB27AA270E94CA080C9409
:10117000A9090E949B0938F00E94A20920F039F4C5
:101180009F3F19F426F40C9498090EF4E095E7FBC0
:101190000C949209E92F0E94BA0958F3BA17620712
:1011A00073078407950720F079F4A6F50C94DC0901
:1011B0000EF4E0950B2EBA2FA02D0B01B901900172
:1011C0000C01CA01A0011124FF27591B99F0593FB6
:1011D00050F4503E68F11A16F040A22F232F342FFE
:1011E0004427585FF3CF469537952795A795F0404C
:1011F0005395C9F77EF41F16BA0B620B730B840B61
:10120000BAF09150A1F0FF0FBB1F661F771F881F18
:10121000C2F70EC0BA0F621F731F841F48F4879570
:1012200077956795B795F7959E3F08F0B0CF939562
:10123000880F08F09927EE0F9795879508950E94DB
:1012400026096894B1110C94DD0908950E94C20921
:1012500088F09F5798F0B92F9927B751B0F0E1F077
:10126000660F771F881F991F1AF0BA95C9F714C027
:10127000B13091F00E94DC09B1E008950C94DC09D2
:10128000672F782F8827B85F39F0B93FCCF3869560
:1012900077956795B395D9F73EF4909580957095BD
:1012A00061957F4F8F4F9F4F0895E89409C097FB3A
:1012B0003EF490958095709561957F4F8F4F9F4F2D
:1012C0009923A9F0F92F96E9BB279395F695879571
:1012D00077956795B795F111F8CFFAF4BB0F11F434
:1012E00060FF1BC06F5F7F4F8F4F9F4F16C08823DB
:1012F00011F096E911C0772321F09EE8872F762F11
:1013000005C0662371F096E8862F70E060E02AF051
:101310009A95660F771F881FDAF7880F969587953D
:1013200097F9089597F99F6780E870E060E0089565
:101330009FEF80EC089500240A94161617061806ED
:101340000906089500240A941216130614060506C9
:101350000895092E0394000C11F4882352F0BB0F5A
:1013600040F4BF2B11F460FF04C06F5F7F4F8F4FBD
:101370009F4F089557FD9058440F551F59F05F3FF8
:1013800071F04795880F97FB991F61F09F3F79F0A7
:1013900087950895121613061406551FF2CF469529
:1013A000F1DF08C0161617061806991FF1CF8695AB
:1013B0007105610508940895E894BB27662777278F
:1013C000CB0197F908950E94F6090C94A9090E948F
:1013D0009B0938F00E94A20920F0952311F00C948B
:1013E00092090C94980911240C94DD090E94BA0901
:1013F00070F3959FC1F3950F50E0551F629FF00168
:10140000729FBB27F00DB11D639FAA27F00DB11D80
:10141000AA1F649F6627B00DA11D661F829F222709
:10142000B00DA11D621F739FB00DA11D621F839F90
:10143000A00D611D221F749F3327A00D611D231F66
:10144000849F600D211D822F762F6A2F11249F57B4
:1014500050409AF0F1F088234AF0EE0FFF1FBB1FB7
:10146000661F771F881F91505040A9F79E3F510576
:1014700080F00C9492090C94DD095F3FE4F3983EF0
:10148000D4F3869577956795B795F795E7959F5F20
:10149000C1F7FE2B880F911D9695879597F90895B2
:1014A000A1E21A2EAA1BBB1BFD010DC0AA1FBB1F68
:1014B000EE1FFF1FA217B307E407F50720F0A21BDA
:1014C000B30BE40BF50B661F771F881F991F1A9447
:1014D00069F760957095809590959B01AC01BD0171
:1014E000CF010895EE0FFF1F0590F491E02D0994B0
:0414F000F894FFCF9E
:1014F40000000000EB0040028C003801BD009B009E
:10150400AF0000000000540540026E026D024875F1
:101514006D656461643A2000250054656D706572E0
:0A15240061747572613A2000430003
:00000001FF
